:0200000280007C
:1000000010A80720712508006D2508006D2508003F
:100010006D2508006D2508006D2508000000000012
:10002000000000000000000000000000210908009E
:100030006D250800000000009D090800D90908008E
:100040006D2508006D2508006D2508006D25080048
:100050006D2508006D2508006D2508006D25080038
:100060006D2508006D25080000000000DD23080054
:10007000F1230800052408001924080000000000EE
:10008000000000006D2508006D2508006D250800A2
:100090006D2508006D2508006D2508006D250800F8
:1000A0006D250800000000006D2508006D25080082
:1000B0006D2508006D2508006D2508006D250800D8
:1000C0006D2508006D2508006D2508006D250800C8
:1000D0006D2508006D2508006D2508006D250800B8
:1000E0006D2508006D2508006D2508006D250800A8
:1000F0006D25080010B5054C237833B9044B13B1B6
:100100000448AFF300800123237010BD7805072059
:10011000000000004C4C080008B5064B1BB1064817
:100120000649AFF300800648036813B1054B03B1DD
:10013000984708BD000000004C4C08007C050720D3
:100140004C4C08000000000038B525200E4B9847A5
:100150000E4C20460E490F4A00230F4DA84720465B
:1001600000210A460B460D4DA847204610210C4B96
:10017000984720460A210B4B9847204600210A4603
:10018000094B984738BD00BF1525080000000C40FA
:10019000007A030A002D3101AD01080001020800B8
:1001A000E101080029020800F101080030B401242F
:1001B00004600024446040F20225C0F82051C0F8D9
:1001C0000441C0F8144145682B435200B1FBF2F1E1
:1001D0004D1E2D02ADB22B434360204630BC70470C
:1001E000436823F01003436043681943416070473C
:1001F00043681943D201D3B219434160704700BF2D
:1002000010B444682243090601F0706422431B07BE
:1002100003F040531A4342605DF8044B704700BF3F
:1002200002230360704700BF012303FA01F101615B
:10023000704700BF006A7047006B704730B585B0EB
:100240002420184B9847002828D1174D2846002114
:10025000164B9847164B019300240294154B0393B9
:10026000284601A9144B984714490C818C720B2223
:100270004A6040F2E7320A61CC600C602846104BBD
:10028000984710484FF080514FF480320E4B9847FA
:10029000284621460D4B9847012000E0002005B07C
:1002A00030BD00BF1525080000400940152008009A
:1002B000583E0F0000BD0105A11E0800940507204F
:1002C000E11E080000100E406D2108000920080002
:1002D00008B5024602480349034B984708BD00BFD2
:1002E0000040094094050720E51F08002DE9F04F64
:1002F00083B04D484D4B98474B4D4D4C2846A04739
:1003000010F0807FFAD048484A4B98474A4CA6687C
:10031000E6606768A760D4F80080C4F8048080B203
:10032000464B98472060464C4FF07A51A047454DC8
:100330000021A847814640464FF07A51A047014628
:100340004846A847804638464FF07A51A0470146B4
:100350004046A847074630464FF07A51A0473946F5
:10036000A847394B984780B20090384B1E88361A00
:10037000B6B20FFA86FBDFF804A15846D0470190C9
:10038000334BD3F800904946A047DFF8F480D8F803
:100390000010A8470746C8F80000DFF8E880B8F961
:1003A0000000C0EB0B00D047DFF8DCA04946D04787
:1003B000A8F80060274B1968A04701460198A84794
:1003C00080463846244B1968D04701464046A84726
:1003D000224B1968A0471C4B984780B240F2E73384
:1003E000984234BF04461C4620461D4B98471D4B7F
:1003F000186800214FF6FF720B461B4DA84778B1D5
:1004000000981A4B98472046194B98475846194B65
:100410009847144B186800210A460B46164CA04713
:1004200003B0BDE8F08F00BF00000C4021020800BF
:100430003902080035020800BC050720B544080051
:100440006545080055430800054808000488072052
:10045000F887072000880720FC870720F0870720FF
:10046000D10208003C010720450F0800650608007E
:10047000710608007D060800910D0800BD440800C3
:10048000CC050720D0050720CD46080070B54D4C9F
:10049000A0470528FCD14C4CA0470028FCD0494B74
:1004A00098470546484CA0470028FCD0454B984744
:1004B00000EB0520454B1880434CA0470028FCD09A
:1004C000404B98470546404CA0470028FCD03D4B88
:1004D0009847064628463E4B984702460B46002062
:1004E0003C493D4CA04704460D4630463B4B98479F
:1004F0003B4B984722462B463A4CA0473A4B9847ED
:100500003A4B1860304CA0470028FCD02D4B984740
:1005100005462D4CA0470028FCD02A4B984706469C
:1005200028462B4B984702460B46002029492A4C67
:10053000A04704460D463046284B9847284B98471D
:1005400022462B46274CA047274B9847284B18603C
:100550001D4CA0470028FCD01A4B984705461A4C62
:10056000A0470028FCD0174B984706462846184B52
:10057000984702460B4600201649174CA0470446F0
:100580000D463046154B9847154B984722462B464B
:10059000144CA047144B9847164B18600A4CA047C0
:1005A0000028FCD0074B9847134C2070134B9847FA
:1005B00020780A4B98471249124B9847124B186003
:1005C00070BD00BF8D20080071200800048807203E
:1005D000893C0800000024402D280800B54408008C
:1005E000CD3C0800C93F0800A9420800F087072059
:1005F000FC87072000880720F48707205906080099
:1006000000007A44CD460800F8870720F0B583B093
:100610000A4B1D780A4B9847ADF80600094C0A4F63
:100620000A4EA04708B9B847B047094B98470DF1A3
:1006300006002946074B9847F3E700BFF4870720D9
:10064000D51308008D200800D10208008D04080091
:10065000ED02080029160800014B1870704700BF12
:10066000F4870720014B1880704700BF06880720D9
:10067000014B1880704700BF0A880720014B188083
:10068000704700BF0C88072083B2A3F5407292B276
:10069000FF2A04D80321264A1170264A1070A3F5B8
:1006A000007292B2FF2A04D80221214A1170214A15
:1006B0001070A3F5807292B2FF2A04D801211C4A5F
:1006C00011701C4A1070FF2B04D80021184A1170B9
:1006D000184A107003F1FF0292B2FE2A05D80521D4
:1006E000134A11704142134A117003F2FF1292B281
:1006F000FF2A05D806210E4A117041420D4A117099
:1007000003F2FF2292B2FF2A05D80721084A11708E
:100710004142084A117003F2FF339BB2FF2B05D808
:100720000822034B1A704042024B1870704700BFFA
:100730000988072008880720F0B583B0334B1E785E
:10074000334B9847ADF80600324D334CA847062886
:1007500055D1324B186800214FF6FF720B46304FCF
:10076000B84700284BD02F4BB3F900002E4B9847C9
:10077000A0470028FCD02D4B18782D4FB8470A20F1
:10078000B847A0470028FCD02A4B1878284FB84714
:100790000A20B847284BB3F90000234B9847A047DD
:1007A0000028FCD0214B1878214FB8470A20B847C1
:1007B000A0470028FCD01F4B18781D4FB8470A20CF
:1007C000B8471E4BB3F90000174B9847A0470028C5
:1007D000FCD0164B1878164FB8470A20B847A047E8
:1007E0000028FCD0134B1878114FB8470A20B8479F
:1007F0000A4B186800210A460B46114FB8470DF105
:10080000060031460F4B9847A0E700BFF48707204A
:10081000D51308008D200800612008003C01072046
:10082000450F080006880720890608000988072068
:1008300081200800088807200A8807200C880720E4
:10084000910D08002916080000F1080343604FF6D7
:10085000FF720281C360036100230360704700BF21
:1008600000230361704700BF43685A684A604268CA
:100870008A605A6891605960416008610368013379
:100880000360704710B40C884FF6FF739C4201D18F
:1008900003690CE000F10803C268128892B2944226
:1008A00005D35B685A68128892B29442F9D25A68AA
:1008B0004A6091608B60596008610368013303608E
:1008C0005DF8044B704700BF436882689A60836894
:1008D00042685A6003695A68824204BF82685A605B
:1008E000002202611A68013A1A601868704700BF56
:1008F00003480068006880F3088862B600DF00BF24
:1009000008ED00E04FF0807340F8043C40F8081C0C
:10091000002340F80C3C40F8202C4038704700BFC2
:10092000064B19680868B0E8F00F80F309884FF0AB
:10093000000080F311884EF00D0E704700870720ED
:100940004FF08052014B1A60704700BF04ED00E089
:10095000EFF311804FF0A00181F311887047002060
:1009600008B5034B9847034B1A6801321A6008BD5B
:10097000510908002C01072080F31188704700BF3F
:1009800008B5044A1368013B136013B90020024BF9
:10099000984708BD2C01072079090800EFF309806A
:1009A0000C4B1A6820E9F00F10602DE908404FF059
:1009B000A00080F3118800F0C5FE4FF0000080F326
:1009C0001188BDE8084019680868B0E8F00F80F3A6
:1009D000098870470087072008B54FF08052054B03
:1009E0001A60054B9847054B98470020044B9847E1
:1009F00008BD00BF04ED00E051090800F513080030
:100A000079090800034A044B1A600722043B1A6064
:100A1000704700BF1F48010014E000E010B5094B0B
:100A20001A6842F470021A601A6842F070421A6042
:100A3000054B98470024054B1C60054B9847204602
:100A400010BD00BF20ED00E0050A08002C010720C2
:100A5000F108080030B4134A1368834201D21A46E1
:100A6000FAE7114654681519854203D168680444B1
:100A70005460104642688418A3420CD10A4C246882
:100A80009C4206D05B681A4442600B681B68036096
:100A900002E0036000E00360814218BF086030BCE0
:100AA000704700BFDC850720D885072038B504468D
:100AB000284B9847284B1B689BB9284A284B136042
:100AC0000021516047F6F0729818234D286047F6D0
:100AD000F475595199505A601860224B1A68103AAF
:100AE0001A60002C2DD004F1100212F0070F1CBF69
:100AF00022F007020832511E47F6FE73994222D8AF
:100B000016490C6863689A4204D9236813B12146D8
:100B10001C46F7E7104B1B689C4216D00D68103539
:100B200023680B6063689B1A202B04D9A0184360CC
:100B300062600D4B98470B4B1A686168521A1A6035
:100B400004E0002502E0002500E00025074B98475F
:100B5000284638BDC5130800D8850720DC85072046
:100B6000D805072030010720550A08002115080084
:100B700010B5044668B1074B9847074B196854F8FD
:100B80000C2C0A441A60A4F11000044B9847044B43
:100B9000984710BDC513080030010720550A08000A
:100BA0002115080010B50446036C3BB903681BBB54
:100BB0004068134B9847002363601DE06AB9806862
:100BC0001A46104B9847A268236C1344A3606268CE
:100BD000934211D32368A3600EE0C0681A46094B04
:100BE0009847226C5242E3681344E36021688B42C9
:100BF00002D263681A44E260A36B0133A36310BDA1
:100C00006D1A0800A148080038B5034605685DB1B3
:100C1000026CC4681444C4604068844228BFDD602C
:100C20000846D968014B984738BD00BFA148080065
:100C3000F8B504461D4B9847A36C002B12DD636A80
:100C400083B104F124061A4D1A4F01E0636A4BB1D7
:100C50003046A84700B1B847A36C013BA364A36C1E
:100C6000002BF3DC4FF0FF33A364134B98470F4B7B
:100C70009847636C002B12DD236983B104F11006E1
:100C80000B4D0C4F01E023694BB13046A84700B132
:100C9000B847636C013B6364636C002BF3DC4FF07B
:100CA000FF336364044B9847F8BD00BF6109080037
:100CB00081180800B91908008109080038B50D46E7
:100CC000044618B9164B984700BFFDE7154B9847E7
:100CD0002368226CE06B00FB02F0191861600021B0
:100CE000A163A360821A1344E3604FF0FF3363648F
:100CF000A36455B923697BB104F110000A4B9847EE
:100D0000012809D1094B984706E004F11000084D6D
:100D1000A84704F12400A847064B9847012038BD96
:100D200051090800610908008118080041090800FC
:100D30004908080081090800F8B50D46174606461F
:100D400088B150200E4B9847044660B105FB06F071
:100D500001300B4B9847206040B92046094B98471B
:100D600001E000BFFDE7084B9847FAE7E66325641A
:100D700020460121054B984784F84D702046F8BD68
:100D8000AD0A0800710B080051090800BD0C0800ED
:100D90002DE9F04F85B08A469B46ADF80620044603
:100DA00018B9384B984700BFFDE709B9036C1BB968
:100DB0000027354E354D03E0324B984700BFFDE725
:100DC000B047A26BE36B9A4212D2204651465A4674
:100DD0002F4B9847636A3BB104F124002D4B984791
:100DE000012801D12C4B9847284B9847012046E019
:100DF000BDF806301BB9254B984700203FE01FB9CE
:100E000002A8264B98470127A847254B9847B0478B
:100E1000636CB3F1FF3F04BF00236364A36CB3F1C1
:100E2000FF3F04BF0023A364A84702A80DF10601F9
:100E30001C4B9847E8B9B047D4F83890D4F83C80B8
:100E4000A847C1450FD104F11000BDF80610164B9C
:100E500098472046154B9847154B98470028AFD127
:100E60000D4B9847ACE72046104B9847104B9847DE
:100E7000A6E720460D4B98470D4B9847002005B03C
:100E8000BDE8F08F510908006109080081090800D8
:100E9000A50B080081180800410908000519080081
:100EA000C51308002D190800D5170800310C0800DB
:100EB000211508002DE9F0410E46154698460446D6
:100EC00018B91C4B984700BFFDE729B9036C1BB14B
:100ED000184B984700BFFDE7164B98470746A26B93
:100EE000E36B9A4218D2204631464246124B98474D
:100EF000A36CB3F1FF3F0AD1636A7BB104F1240014
:100F00000E4B984760B16DB101242C600BE0A36CCF
:100F10000133A364012406E0002404E0012402E07C
:100F2000012400E001243846054B98472046BDE8DF
:100F3000F08100BF51090800A50B080081180800C6
:100F4000790908002DE9F04F85B089469A46ADF839
:100F50000620044618B9464B984700BFFDE709B97B
:100F6000036C2BB90027434EDFF838B1424D03E044
:100F70003F4B984700BFFDE7B047A36B002B28D03D
:100F8000E568204649463D4B9847BAF1000F12D11B
:100F9000A36B013BA363236813B9394B9847606087
:100FA000236993B104F11000364B984701280CD106
:100FB000354B984709E0E560636A33B104F12400DA
:100FC000304B984708B1304B98472B4B984701203E
:100FD0004BE0BDF806301BB9274B9847002044E092
:100FE00017B902A8D8470127A847284B9847B04708
:100FF000636CB3F1FF3F04BF00236364A36CB3F1E0
:10100000FF3F04BF0023A364A84702A80DF1060117
:101010001F4B984718BBB047D4F83880A847B8F1A1
:10102000000F16D1236823B9B0476068194B984761
:10103000A84704F12400BDF80610174B9847204636
:10104000164B9847164B9847002895D10E4B98475A
:1010500092E72046114B9847114B98478CE7204662
:101060000E4B98470E4B9847002005B0BDE8F08F17
:10107000510908006109080081090800090C0800ED
:10108000C51908008118080041090800C5130800A7
:101090002D190800F1190800D5170800310C0800B7
:1010A000211508000519080038B504460D460D4BFA
:1010B0009847636CB3F1FF3F04BF00236364A36CE4
:1010C000B3F1FF3F04BF0023A364074B9847A36B12
:1010D00023B904F124002946044B98472046044BC9
:1010E000984738BD610908008109080039180800CF
:1010F000310C080010B504460F4B1B6898800F4B4D
:101100001B889BB2984207D20D4B18680A4B19688E
:1011100004310C4B984710BD0B4B1868064B1968EF
:101120000431084B9847094B1B889BB29C423CBF3B
:10113000064B1C8010BD00BF008707201C870720BE
:101140002087072085080800FC8507203401072038
:101150002DE9F84F0E4617469A460A9DDDF8308075
:10116000814618B9624B984700BFFDE7092D03D9A6
:101170005F4B984700BFFDE750205E4B9847044601
:10118000002800F0B180B8F1000F40F0A980B8004D
:10119000584B9847206318B92046574B9847A3E00F
:1011A000A521BA00554B984707F18047013F236BB3
:1011B00003EB870323F0070B04F1340031461022C0
:1011C0004F4B9847002384F84330092D34BF2E46F7
:1011D0000926E662E664271D3846DFF87081C047BD
:1011E00004F11800C0472461C6F10A062683646230
:1011F000584649465246434B9847206010F0070F27
:1012000003D03B4B984700BFFDE70B9B03B11C602D
:101210003D4B98473D4B1A6801321A603C4B1B68A6
:101220002BBB3B4B1C60394B1B68012B29D1394E22
:1012300006F1C809DFF8E0803046C04714364E4555
:10124000FAD1DFF80C914846334EB047DFF80481FD
:101250004046B0473148B0473148B0473148B047C1
:10126000314BC3F80090314BC3F8008009E0304B9C
:101270001B6833B9264B1B68DB6A9D4224BF244B95
:101280001C60E36A2B4A1268934284BF294A1360A8
:10129000294A1168616401311160284A1268934239
:1012A00084BF264A136003EB83031A4800EB8300D4
:1012B0003946234B9847234B98471D4B1B684BB12E
:1012C000134B1B68DB6A9D4207D91F4B98470120CF
:1012D000BDE8F88F0120BDE8F88F0120BDE8F88F48
:1012E000C0F8308040465BE74FF0FF30BDE8F88F34
:1012F00051090800AD0A0800710B08008D4908006B
:10130000214A0800050908006109080040870720F4
:101310000087072034860720490808000487072033
:1013200008860720E8850720FC85072020870720FE
:10133000008607204487072024870720308607205F
:1013400069080800810908004109080061080800CF
:10135000288707201C86072010B584B0002300933F
:101360000193029303930F480F494FF480720F4C7F
:10137000A04701280ED10E4B984701280AD10D4BEA
:10138000984701220C4B1A6000220C4B1A800C4B20
:10139000984704E018B9074B984700BFFDE704B031
:1013A00010BD00BFC1160800904B08005111080085
:1013B000691B080051090800008607201C870720C8
:1013C0001D0A0800024B1A6801321A60704700BFFC
:1013D000FC86072010B5044B9847044B1C88A4B228
:1013E000034B9847204610BD610908001C87072061
:1013F000810908002DE9F0413D4B1B68002B71D19C
:101400003C4B1A88013292B21A801B889BB203BBF4
:10141000394B1B681B681BB1384B984700BFFDE771
:10142000354B1968364A106818601160354A1168E2
:10143000013111601B681B6823B94FF6FF72324BF4
:101440001A8006E02C4B1B68DB68DB689A882E4B01
:101450001A80284B1A8892B22B4B1B889BB29A4257
:1014600044D3254B1B681B6853B1234B1B68DB68B7
:10147000DC68A3881F4A128892B2934214D90FE005
:101480004FF6FF72204B1A80BDE8F0811A4B1B68A3
:10149000DB68DC68A388174A128892B2934207D9A6
:1014A000194A1380BDE8F081184E194FDFF86C809F
:1014B000251D2846B047A36A13B104F11800B047B0
:1014C000E36A3A68934288BF3B6003EB830008EB12
:1014D000800029460F4B9847074B1B681B68002B61
:1014E000D4D1CDE70C4B1A6801321A60BDE8F08107
:1014F000FC8607201C870720FC850720510908006F
:10150000208707201887072034010720C908080012
:101510003086072069080800E48507203486072004
:101520002DE9F843314B1B681BB9314B984700BF7D
:10153000FDE7304B98472D4B1A68013A1A601B683B
:10154000002B48D12C4B1B68002B46D00025DFF820
:10155000D4802A4F2A4E1DE0D8F80C30DC6804F104
:101560001800B84704F104094846B847E36A3268EE
:10157000934288BF336003EB8303224800EB830070
:101580004946214B9847214B1B68E26ADB6A9A4225
:1015900028BF0125D8F80030002BDDD11C4B1B687B
:1015A00063B11B4B1B687BB11A4D194CA8472368CC
:1015B000013B23602368002BF8D105E0012D03D007
:1015C000154B1B68012B0AD10022134B1A60134BD9
:1015D0009847012404E0002402E0002400E00024F5
:1015E0000F4B98472046BDE8F88300BFFC860720D4
:1015F000510908006109080040870720C908080050
:1016000030860720348607206908080000870720F5
:10161000E4850720F51308003C87072041090800EE
:10162000810908000487072038B50C46054618B91B
:101630001B4B984700BFFDE719B9194B984700BFEE
:10164000FDE7184B98472B881C44A4B2164A128811
:1016500092B2934208D9A3421ED9134B1B889BB266
:101660002C809C4210D907E0A34213D80E4B1B8854
:101670009BB29C420ED80FE00C4B186804300C4B08
:10168000984720460B4B98470B4B984730B90B4B6C
:10169000984738BD2C80EFE72C80F5E738BD00BFB8
:1016A00051090800C51308001C8707200087072080
:1016B000C9080800F51008002115080041090800B4
:1016C00080B5154D154EDFF878801CE0144B984717
:1016D000144B1C68144B9847ACB1144B9847114BF2
:1016E000DB68DC68201D124B9847124B1A68013AE0
:1016F0001A602B68013B2B600F4B9847206B0F4FF4
:10170000B8472046B8472B68002BDFD13368012B40
:10171000F9D9C047F7E700BF0486072034860720C1
:10172000C513080008860720211508006109080074
:10173000C90808004087072081090800710B0800CC
:101740004109080008B51D4B1B685BB91C4B1B68A1
:1017500003EB83039B001B4AD358CBB9184B1B6880
:1017600053B905E00122184B1A6008BD1A682AB95E
:10177000164B984700BFFDE7114B12491A68013A12
:101780001A601A6802EB820251F82220002AEDD07A
:101790000B4B1B6803EB83030A4A02EB83035A6873
:1017A00052685A6003F108018A4204BF52685A60C5
:1017B0005B68DA68064B1A6008BD00BFFC8607202C
:1017C00030860720348607203C870720510908000F
:1017D0000087072038B50C4618B90F4B984700BF53
:1017E000FDE70E4D296818310D4B984728680430E5
:1017F0000C4B98474FF6FF739C4205D129680A4865
:1018000004310A4B984738BD094B1888204480B2F0
:10181000084B984738BD00BF5109080000870720D2
:1018200085080800C9080800E8850720690808003D
:101830001C870720F510080038B50D4618B90A4B6B
:10184000984700BFFDE7094C21681831084B9847BD
:1018500020680430074B9847074B1888284480B20B
:10186000064B984738BD00BF510908000087072084
:1018700069080800C90808001C870720F51008003F
:1018800038B5C368DC681CB9164B984700BFFDE744
:1018900004F118052846144B9847144B1B689BB954
:1018A000251D2846104B9847E36A114A1268934257
:1018B00084BF0F4A136003EB83030E4800EB8300E1
:1018C00029460D4B984703E00C4829460A4B984798
:1018D0000B4B1B68E06ADB6A984234BF0020012092
:1018E00038BD00BF51090800C9080800FC86072060
:1018F00030860720348607206908080004870720FF
:101900000087072008B518B9054B984700BFFDE7C9
:10191000044A12680260044A1288828008BD00BF2F
:1019200051090800188707201C87072038B50D4685
:10193000044618B91A4B984700BFFDE719B9184B70
:10194000984700BFFDE7174B98472B884FF6FF726B
:1019500093421CD0144A116822688A4205D0134A67
:10196000128892B2A188914213D9104A1188A28894
:10197000891A89B28B420ED90C49098889B2521A48
:1019800013442B8020460A4B9847002404E000248F
:1019900002E0012400E00124064B9847204638BDB0
:1019A0005109080061090800188707201C870720D3
:1019B00005190800810908000122014B1A607047CF
:1019C0003C870720014B1868704700BF008707203D
:1019D000054B1B6833B1054B1B68002B14BF02205D
:1019E000012070470020704700860720FC860720F2
:1019F00038B5044600282ED0C36A174A1268D26A46
:101A0000934228D2144A1268D26AC2F10A020283AF
:101A100003EB8303114A02EB830342699A4216D116
:101A2000051D28460E4B98470B4B1B68DB6AE3628B
:101A30000C4A1268934284BF0A4A136003EB830383
:101A4000064800EB83002946074B984738BD024BF8
:101A50001B68DB6AC36238BD008707203486072015
:101A6000C9080800308607206908080038B5044610
:101A7000D0B1C26AC36C9A4216D0051D28460B4BE2
:101A80009847E36CE362C3F10A022283084A1268B2
:101A9000934284BF064A136003EB8303054800EBBF
:101AA00083002946044B984738BD00BFC908080089
:101AB00030860720348607206908080010B50446E0
:101AC0008180206191420BD8D31A018B9BB299423D
:101AD00011D90B4B1868211D0A4B9847002010BDE7
:101AE0009A4201D2994208D2074B1868211D054B32
:101AF0009847002010BD012010BD012010BD00BF7F
:101B00007C870720850808004887072070B50D4BA3
:101B100098470D4B1B688BB90C4D28460C4EB047AF
:101B20000C4C2046B0470C4B1D600C4B1C60052034
:101B30000C2100220A4B9847034B1860094B984729
:101B400070BD00BF61090800788707204C87072017
:101B50004908080060870720488707207C870720FE
:101B6000390D08008109080010B584B00B4B984767
:101B70000B4B1B6863B1092300930023019302936D
:101B80000393084808494FF40072084CA04718B95D
:101B9000074B984700BFFDE704B010BD0D1B0800C0
:101BA00078870720C91C08009C4B080051110800C9
:101BB0005109080010B584B0104C2468D4B10191CB
:101BC000ADF80820039073B90D4B984701280B4BD3
:101BD000186801A907BFBDF818200023002213468A
:101BE000084CA04707E0204601A91A460023064CEE
:101BF000A04700E0002004B010BD00BF7887072098
:101C0000D1190800910D0800B50E08002DE9F04724
:101C100082B08146244B98478046244B1B888342E0
:101C200037D9234E234F27E0DA68B2F800A01FFA15
:101C30008AFADB68DC68251D2846B847636A2046B7
:101C40009847E369012B17D1238B53449BB253452B
:101C500006D9A380246130682946174B98470BE0CA
:101C600000230093204619465246144CA04718B949
:101C7000134B984700BFFDE733681A68002AD3D199
:101C8000104A11680A48016013600123C9F8003046
:101C900002E00023C9F80030044BA3F8008040465E
:101CA00002B0BDE8F08700BFD51308007487072095
:101CB00048870720C908080085080800B51B0800E8
:101CC000510908007C8707202DE9F04387B0514D6A
:101CD000DFF87081504B1B681A68002A00F0908072
:101CE000DB681E88B6B24D4B984703A84C4B98470B
:101CF0000746039B002B32D1864225D8494B984793
:101D0000454B1B68DB68DC68201DC047E369012B7D
:101D100015D1218B3144204689B23A463346424F91
:101D2000B84701280BD100230093204619463246BC
:101D30003E4EB04718B93E4B984700BFFDE7636A77
:101D4000204698470DE00026F11B286889B2394BE0
:101D50009847344B984720B9374B984701E0314BAF
:101D6000984702A82E4B98470746344EDFF8B890A4
:101D70003EE0059C1CB1616909B1201DC047039973
:101D8000022923D0032930D0002931D1BDF81030E9
:101D9000218B1944204689B23A46C847012827D1E9
:101DA000636A20469847E369012B21D1228BBDF855
:101DB00010301A44002300932046194692B21B4C5F
:101DC000A047A8B91A4B984700BFFDE7BDF81030EF
:101DD00023831BB9164B984700BFFDE7F91820462F
:101DE00089B23A463B46C84702E02046144B984722
:101DF000286803A900221346B0470028B9D169E733
:101E0000064B984703A8064B98470746039B002BB1
:101E100099D0A4E77887072048870720C5130800D2
:101E20000D1C080021150800BD1A0800B51B08008C
:101E300051090800A910080041090800450F0800D1
:101E4000710B0800C9080800F0B48CB007460E46B4
:101E500001AC124D0FCD0FC40FCD0FC495E8070094
:101E600084E807006A46002352F8044FB6FBF4F4F6
:101E7000B4FBF7F4B4F5807F03D901330B2BF3D116
:101E800004E00A2B05D844EA032004E04FF6FF7073
:101E900001E04FF6FF700CB0F0BC7047A44B080097
:101EA00070B506460C46086840B189680B4B9847E8
:101EB00005464FF6FF73984201D10EE00025606899
:101EC00040B1A168054B98474FF6FF73984204D084
:101ED00045EA00453560002070BD70BD491E080010
:101EE00070B40B688C8A4A6802F00F0214430D89A3
:101EF0002C438A7A44EA42248A7D44EA0244CA7D19
:101F000044EA42440A7E44EA824400EB4312C2F8A7
:101F10000042CC68C2F804420C69C2F80C428A7DC7
:101F20003AB18C8B4A8B42EA044400EB4312C2F86C
:101F30001842856C4FF001129A40D2431540CE7F73
:101F40009E408C7F9C4044EA06442C438464446C4D
:101F5000224091F821509D4091F820409C4044EA55
:101F600005442243426401229A4091F822401CB168
:101F7000046A1443046203E0046A24EA020404626B
:101F800091F82440012C846E0CBF14439443846662
:101F900091F82540012C846E0CBF44EA024224EAE9
:101FA00002428266032B0CD8C46EDB00FF229A40EB
:101FB00024EA020291F8231001FA03F31343C366E3
:101FC0000CE0043B046FDB00FF229A4024EA02028B
:101FD00091F8231001FA03F313430367002070BC48
:101FE000704700BF10B40C680B69934206D3CA60F7
:101FF00000EB4410C0F80822002001E04FF6FF700B
:102000005DF8044B704700BF012303FA01F1416002
:10201000704700BF012303FA01F18160704700BFE0
:102020000C4BB3FBF0F00C4A10604FF400620B4B0A
:102030001A605022043B1A6003F5C0634FF48072AB
:102040005A665A655A62C3F880201A6F22F4807269
:102050001A677047D01B500020080E4004080E403D
:10206000024B186800F00200704700BF14080E40D1
:10207000024B186800F00100704700BF14080E40C2
:10208000014B1860704700BF1C080E40014B1878C8
:10209000704700BF18080E4010B50E480E4B984709
:1020A00000203E210D4B98470D4CA0470028FCD046
:1020B0000C4B98470C4A0D4B9A620D4CA0470028D8
:1020C000FCD010200B4B98470B4B98470148024B14
:1020D000984710BD00BD0105A50007209124080008
:1020E000E5240800F5240800013F0D2000060E40FD
:1020F000052508002D2408002126080010B54FF4FE
:102100000042134B5A600B20124CA0470C20A047F2
:102110000D20A0470E20A0473B204FF060510E4CF1
:10212000A04755204FF06051A04756204FF0605116
:10213000A04768200949A0475C200949A0470948F1
:102140004FF440714FF00062074B984710BD00BF3D
:10215000501A0E40152508001122080079000028A9
:1021600001000028000E0E40E52208004264B1F193
:10217000805F16D004D8C1B1B1F1006F0AD013E06E
:10218000B1F1405F11D0B1F1605F0ED0B1F1205FCD
:102190000AD17047036F016F0B4023EA0203036704
:1021A00002E0036F1343036742607047416412F01B
:1021B000010F14BF4166016612F00A0F14BF0162DD
:1021C000416212F0020F02D0C0F8801004E012F059
:1021D000080F18BFC0F8841041610160704700BF4C
:1021E00010B44164019C0CB1416600E001660BB182
:1021F000016500E041650AB1016300E041630161EE
:1022000001605DF8044B7047C06C7047806C70478C
:1022100070B582B00D46440904F5001404F2077449
:10222000660201F0F044B4F1205F30D006D8B4F17A
:10223000006F0AD0B4F1805F18D049E0B4F1405F7C
:1022400030D0B4F1605F2DD042E000F01F000124D7
:10225000844030464FF0006122461F4B984715F0EE
:10226000010F14BF74663466012032E000F01F00D5
:102270000124844030464FF080512246164B984747
:1022800015F0010F14BF74663466012021E000F0E0
:102290001F010124304604FA01F12A460F4B9847EA
:1022A000204616E000F01F01012405F0605205EA07
:1022B00004030093304604FA01F1B2F1605F14BFE9
:1022C00000220122C5F38003054DA847204600E007
:1022D000002002B070BD00BF6D210800AD210800D4
:1022E000E1210800F0B583B007460E46154602F01E
:1022F000F044B4F1205F26D006D8B4F1006F0AD0C4
:10230000B4F1805F13D034E0B4F1405F1FD0B4F17A
:10231000605F1CD02DE04FF000613246164B9847AD
:1023200015F0010F14BF7E663E66012022E04FF0DB
:1023300080513246104B984715F0010F14BF7E664E
:102340003E66012016E00D4B9847012012E005F093
:10235000605205F00103009338463146B2F1605FE8
:1023600014BF00220122C5F38003054CA0470120C1
:1023700000E0002003B0F0BD6D210800AD21080091
:10238000E12108002DE9F04104460E46104B984724
:10239000054620460F4B9847054017D00E4F07F1D2
:1023A0000C046C3754F80C3CB3420AD154F8081CA6
:1023B000294206D023683046984754F8083C25EA5D
:1023C0000305BC4202D01034002DEBD1BDE8F081F2
:1023D000092208000D2208008087072008B502485E
:1023E0000B21024B984708BD000E0E4085230800C4
:1023F00008B502480C21024B984708BD00100E405A
:102400008523080008B502480D21024B984708BDF6
:1024100000120E408523080008B502480E21024B29
:10242000984708BD00140E4085230800174B1A6B0F
:1024300022F07002104318639B6E13F0080F09D14D
:102440004FF40063114901E0013B19D08A6E12F08C
:10245000080FF9D00D4B1A6B22F0030242F0020272
:102460001A63986E10F008000CD14FF4006307490E
:1024700001E0013B08D08A6E12F0080FF9D07047D6
:1024800001207047002070470120704700060E4071
:1024900038B111490B6A114A1A40114B13430B62B0
:1024A00070470D4A136A23F45C1323F0030343F4CB
:1024B0005C1343F00103090289B20B431362936E6C
:1024C00013F0010FFBD0044A136A43F09B7343F4EB
:1024D00080331362704700BF00060E40FCFFC8FE49
:1024E00002003701024B986E00F48030704700BF45
:1024F00000060E404FF00052014B9A62704700BF39
:1025000000060E40024B986E00F00200704700BFBC
:1025100000060E402C2820D81F280DD8124B9A698F
:10252000012383401A40934219D0012303FA00F09B
:102530000D4B1861002070470B4BD3F80821203851
:10254000012383401A4093420BD0012303FA00F089
:10255000054BC3F8000100207047012070470020A0
:1025600070470020704700BF00060E40FEE700BF26
:1025700010B51E4B1E4A9A4203D01E4B1B4A9A426C
:1025800004D31D4B1D4A9A420FD31AE01C4B1D4C1D
:10259000E41A24F0030404340023144814495A585C
:1025A0001A500433A342FAD1EBE7174B1749C91A63
:1025B00021F003011A1D1144002243F8042F8B421D
:1025C000FBD1134A22F0604323F07F0311498B6053
:1025D00002F16042B2F5801F03D28A6842F00052D5
:1025E0008A600D4B98470D4B9847FEE70000072087
:1025F0004C4C080074050720108807207805072038
:102600000400072077050720740507200B880720A2
:102610000000080000ED00E0514808003D270800D8
:102620003E4B1B6B03F00303032B5FD8DFE803F083
:10263000020E2B2B3A4B5B6913F0800F14BF4FF443
:1026400000424FF4FA42374B1A604FE0334B1B6A9B
:1026500013F0807F03D0344A324B1A6046E0334A8D
:10266000304B1A602D4B1B6A03F07003102B02D005
:10267000202B04D03AE02E4A2A4B1A6036E02A4A30
:10268000284B1A6032E0254B1B6A13F0807F03D081
:10269000254A244B1A6012E0244A224B1A601F4B31
:1026A0001B6A03F07003102B02D0202B04D006E02D
:1026B0001F4A1C4B1A6002E01B4A1A4B1A60174B48
:1026C0001B6B03F00303022B0DD1144B986A996A1C
:1026D000144BC0F30A401A6800FB0222C9B2B2FBD5
:1026E000F1F21A6002E0134A0E4B1A600B4B1B6B9F
:1026F00003F07003702B07D10A4B1A680E49A1FB37
:10270000020252081A607047044B196B054BC1F363
:1027100002111A68CA401A60704700BF00060E40D6
:10272000101A0E4038010720001BB70000093D00B9
:1027300000127A00001C4E0EABAAAAAA30B585B0D2
:10274000284B9847284B98470B20284CA0470C2033
:10275000A0470D20A0470E20A047254B4FF08062D8
:102760005A61C3F8A020234A4FF480011161C2F8D6
:10277000A01051634FF000621A61C3F8A0201A63E1
:102780000120002103221C4B98471C4B186020B1EC
:1027900000210A460B461A4CA0471A4B98471A4B81
:1027A00098474FF4E130194B9847194B984700244C
:1027B0000094019402940394164817494FF4007250
:1027C0002346164DA847009401940294039414489C
:1027D00014494FF400722346A847134B98472046EC
:1027E00005B030BD99200800FD200800152508001F
:1027F00000100E4000120E40390D08003C01072069
:10280000910D0800490108003D0208002120080040
:102810008D04080039070800D04B0800511108004A
:102820000D060800D84B0800591308002DE9F04F99
:102830008BB01D4680468946144600F075F9DFF8D6
:10284000ACA206469AF900300F46013304D0204668
:10285000294600F08FFF20B9304639460BB0BDE85D
:10286000F08F4046494600F085FF834600282CD172
:10287000204629460022002301F0E4FC0028EBD08A
:10288000944B9AF90010944E00220120CDE90623C2
:102890004B1CCDF820B0CDE90289CDE904458DE887
:1028A00041000DD002290BD0684600F08BFF0028B4
:1028B00000F09580089B1BB101F0C4FF089B0360EA
:1028C000DDE906010BB0BDE8F08F00220023404691
:1028D000494601F0B7FCF8B1204629460022002302
:1028E00001F0B0FC834600284DD07B489AF90030B7
:1028F000CDE904450121002200240025CDE902890B
:10290000CDE90645019000910892002BCCD0714B87
:102910000022CDE90623D3E73046394600F024FFF4
:102920008346002860D0002200233046394601F05B
:1029300089FC002890D04046494600F015FF002849
:102940008AD02046294600F00FFF002884D09AF94B
:1029500000306148CDE9044504210022002400250F
:10296000022BCDE90289CDE906450190009108923C
:1029700000F08280684600F025FF00287CD0089B8C
:10298000002B9DD098E72046294600F0EDFE002858
:102990003FF462AF204629460022002301F05CFC90
:1029A00000283FF459AF4C4A9AF8001001230192D5
:1029B000CDF820B0CDE90289CDE90445009300228D
:1029C000002934D10023CDE90623684600F0FAFE41
:1029D0000028D4D101F036FF21230360CFE701F0B6
:1029E00031FF2123036065E74046494600F0BCFE05
:1029F000002898D02046294600F0B6FE002892D044
:102A00003046394600F0B6FEB8B9334A9AF800604D
:102A100001230890CDE90289CDE904450192009394
:102A2000002E2ED100240025CDE90645CDE72B4B05
:102A30000229CDE90623CDD0C7E727499AF900300E
:102A4000032201910092CDF820B0CDE90289CDE9B1
:102A50000445404649460022F3B9214F4FF06046F5
:102A60000023CDE9066701F0F7FB002840D19AF971
:102A70000030022B7FF47EAF01F0E4FE22230360DE
:102A80007DE70020002102460B4601F09DFA022E50
:102A9000CDE906019ED098E7124F00260023CDE92C
:102AA000066701F0D9FB0028E1D000220E4B20463A
:102AB000294601F05FF904460D4600F08BFE2246E0
:102AC0002B4601F0BFFB0028D1D1044B0022CDE9F9
:102AD0000623CCE70000F03FDC4B08000000F0FFCD
:102AE000FFFFEF470000F07F0000E03F40010720BC
:102AF00000220A4B2046294601F03CF904460D46C7
:102B000000F068FE22462B4601F09CFB0028AED167
:102B1000034B4FF06042CDE90623A8E70000E03FF9
:102B2000FFFFEFC7000000002DE9F04F23F0004B3E
:102B300091B089460F465BEA0201CDE902231446B3
:102B40001D46804606462ED0634B29F0004A9A4522
:102B500022DC1FD0604B9B451EDC77D0002F78DB3A
:102B60000022049264BB5C4B9B4500F091805B4B60
:102B70009B4565D0B5F1804F00F0F983584B9D42DD
:102B80001ED1002F1CDB4046494611B0BDE8F04F76
:102B900000F026BD0028DDD00AF1404A0AF5801A6F
:102BA0005AEA060A04D14D49002011B0BDE8F08F61
:102BB0004C4811B0BDE8F04F00F006BE0021049172
:102BC0004046494600F0CCFDE6B9BAF1000F04D00A
:102BD000424B27F040429A4214D1002DC0F20884A3
:102BE000002FE2DA0AF1404ADDF810B00AF5801A47
:102BF0005BEA0A0B5ED0049A012AD6D101F10043A8
:102C00001946D2E7FB0F03F1FF3C049B53EA0C0388
:102C10004ED0354B9B456DDD03F104739B4540F36E
:102C2000EF83324B9A4540F39C83002D40F39C8305
:102C300027A1D1E9000102460B4601F09BF8B4E759
:102C4000002DC0F24B8440464946AEE7002C85D0AB
:102C5000A2E7274B9B4536DCA3F154739B4540F319
:102C60008D834FEA2B5340F21342934240F33E844C
:102C7000C3F58663033324FA03F202FA03F3A34293
:102C80007FF46EAF02F00102C2F10202049269E722
:102C90000AF1404303F58013334384D0134B9A4524
:102CA00040F39E83002DC0F25F83DDE902017CE7E3
:102CB0004046494602460B4600F0A8FE02460B4637
:102CC00001F082F971E7022304934BE7AFF3008030
:102CD0009C7500883CE4377E0000F07F0000F03FE8
:102CE0000000E03F944B08000000E041FFFFEF3F91
:102CF000FFFF3F43BAF5801F80F2EE83AA4B00220C
:102D0000CDF804C001F036F8DDF804C08A466FF053
:102D100034034FEA2A55A54ACAF3130AA5F2FF3530
:102D20004AF07F541D4492450F9544F4401440F3FB
:102D3000D0839F4B9A4540F3EF83DDF83CA00025FC
:102D40000AF1010ACDF83CA0A4F580142B46994A5B
:102D5000DB000E931344D3E90067214632463B461D
:102D6000CDF804C0CDE90A0100F050FE324680469D
:102D700089463B46DDE90A0100F04AFE02460B4661
:102D800000208D4901F020F9CDE90C01DDE90C238B
:102D90004046494600F0EEFFCDE90601DDE906AB0D
:102DA000611041F0005101F500214B190021CDE9DE
:102DB00008AB0891DDE908AB00225046594614469D
:102DC0001D4600F0D7FF02460B464046494600F03C
:102DD0001DFE3246804689463B462046294600F085
:102DE00015FE02460B46DDE90A0100F00FFE024621
:102DF0000B465046594600F0BDFF02460B46404682
:102E0000494600F003FEDDE90C2300F0B3FF06465F
:102E10000F46DDE9060102460B4600F0ABFF024615
:102E20000B4604460D4600F0A5FF4FA3D3E900234F
:102E3000804689462046294600F09CFF4CA3D3E9F2
:102E4000002300F0E5FD22462B4600F093FF4AA345
:102E5000D3E9002300F0DCFD22462B4600F08AFF78
:102E600047A3D3E9002300F0D3FD22462B4600F010
:102E700081FF45A3D3E9002300F0CAFD22462B467B
:102E800000F078FF42A3D3E9002300F0C1FD024621
:102E90000B464046494600F06DFFDDE90623044637
:102EA0000D465046594600F0B3FD32463B4600F011
:102EB00061FF22462B4600F0ABFD52468046894614
:102EC0005B465046594600F055FF00223B4BCDE98A
:102ED0000A0100F09DFD42464B4600F099FD08981E
:102EE0000D46044622462B465046594600F042FF06
:102EF000224682468B462B463046394600F03AFF42
:102F0000002206460F46204629462C4B00F07EFD47
:102F1000DDE90A2300F07AFD02460B4640464946A9
:102F200000F074FDDDE9062300F024FF02460B46A5
:102F30003046394600F06CFD8046894642464B4695
:102F40005046594600F064FD13A3D3E900230898C6
:102F50000D46044600F00EFF11A3D3E90023CDE98E
:102F60000601204629462BE0EF4E454A287ECA3FFF
:102F700065DBC9934A86CD3F01411DA96074D13FED
:102F80004D268F515555D53FFFAB6FDBB66DDB3FFF
:102F9000033333333333E33F000000E009C7EE3F30
:102FA000F5015B14E02F3EBE000040438E98030005
:102FB00079B60B00004C08000000F03F000008400C
:102FC00000F0D8FE524606460F465B46204629468C
:102FD00000F01CFD02460B464046494600F016FD37
:102FE0009FA3D3E9002300F0C5FE02460B463046FE
:102FF000394600F00DFDDDF838A0AB4B5344D3E962
:10300000002300F005FD82460F988B4600F04CFE31
:103010000E9AA64B04461344D3E900670D46524668
:103020005B46DDE9060100F0F3FC32463B4600F06A
:10303000EFFC22462B4600F0EBFC089822462B467C
:103040008046894600F0E2FC32463B4600F0DEFC5A
:10305000DDE9062300F0DAFC02460B4650465946ED
:1030600000F0D4FCDDF804C082468B4604990022AF
:103070004B1E53EA0C030CBF8D4B8E4BDDE9020156
:10308000CDE90823DDE90223CDE9042300230493DD
:10309000DDE904452B46224600F0B8FC42464B468B
:1030A00000F068FE524606460F465B46DDE9020127
:1030B00000F060FE02460B463046394600F0A8FCA0
:1030C00042464B4682468B462046294600F052FE39
:1030D00006460F463B4650465946324600F098FC9D
:1030E000754B8046994289460D4640F34B8101F16C
:1030F0003F4303F5E003034340F012825AA3D3E9B0
:1031000000235046594600F083FC3246CDE90201C7
:103110003B464046494600F079FC02460B46DDE955
:10312000020101F0B7F8002840F00882CC464FEACF
:103130002C53A3F2FE334FF4801018412844C0F3FF
:103140000A515E4AA1F2FF3342FA03FEC1F58261E1
:10315000C0F3130420EA0E03033144F4801040FA54
:1031600001F1002D0491BCBF494204910022304678
:10317000394600F04BFC06460F463246504659464B
:103180003B4600F045FC049A12050292002438A345
:10319000D3E9002320460D4600F0ECFD3246804680
:1031A00089463B462046294600F030FC02460B4645
:1031B0005046594600F02AFC2FA3D3E9002300F023
:1031C000D9FD2FA3D3E9002306460F462046294602
:1031D00000F0D0FD02460B463046394600F018FCA0
:1031E00006460F4632463B464046494600F010FC34
:1031F00042464B4604460D4600F008FC02460B468C
:103200003046394600F002FC224682468B46204674
:103210002B46294600F0AEFD1BA3D3E9002306464A
:103220000F4600F0A7FD1AA3D3E9002300F0EEFB40
:1032300032463B4600F09EFD17A3D3E9002300F081
:10324000E7FB32463B4600F095FD15A3D3E900238A
:1032500000F0DCFB32463B4632E000BFAFF30080BB
:10326000FD033ADC09C7EE3FFE822B654715973C0C
:1032700000000000432EE63FEF39FAFE422EE63F03
:10328000396CA80C615C20BED0A4BE726937663E62
:10329000F16BD2C541BDBB3E2CDE25AF6A56113F56
:1032A00093BDBE166CC1663FF04B0800E04B0800B2
:1032B0000000F0BF0000F03FFFFF8F40FFFF0F0056
:1032C00000F058FDACA3D3E9002300F0A1FB324687
:1032D0003B4600F04FFD02460B462046294600F0D3
:1032E00095FB06460F4632463B462046294600F0EF
:1032F00041FD002280468946304639464FF08043E2
:1033000000F084FB02460B464046494600F05CFE56
:10331000524606460F4620465B46294600F02AFDE7
:1033200052465B4600F074FB02460B463046394677
:1033300000F06CFB22462B4600F068FB02460B4671
:1033400000209B4900F062FB029C02460C44B4F54D
:10335000801FC0F237812346DDE9080100F00AFD35
:1033600023E4002DFFF664AC002000211DE440465C
:10337000494642464B4600F0FDFC16E4002104910C
:10338000FFF7F0BB8B4B21F0004C9C4540F3BD8018
:1033900001F17D5303F53C1303F55053034340F013
:1033A000DB8032463B46CDF804C000F02FFB0246DE
:1033B0000B465046594600F059FFDDF804C000287E
:1033C0003FF4B5AEDDE908016DA3D3E9002300F0B9
:1033D000D1FC6BA3D3E9002300F0CCFCFFF7E5BBE5
:1033E000002DC1DA039B029803F10041FFF7DDBB1A
:1033F00002460B4600206E4900F0E6FDFFF7F0BBE9
:103400006D4B9A45ADDD6A4B9A453FF70EAC0022F5
:10341000674BCDF804C000F0F9FA5BA3D3E90023B1
:1034200004460D4600F0A6FC59A3D3E90023064646
:103430000F462046294600F09DFC224682468B46D8
:103440002B462046294600F095FC002280468946FE
:1034500020462946594B00F08DFC02460B464EA1F2
:10346000D1E9000100F0D2FA22462B4600F082FC9E
:1034700002460B460020524900F0C8FA02460B46AD
:103480004046494600F076FC45A3D3E9002300F00E
:1034900071FC02460B465046594600F0B7FA044606
:1034A0000D4622462B463046394600F0B1FA002040
:1034B00032463B468046894600F0A8FA02460B4653
:1034C0002046294600F0A2FADDF804C082468B4669
:1034D000CCE500252B463AE400231AE442464B464D
:1034E0000020334900F070FDFFF75FBB002C7FF434
:1034F00065ABC3F5826303334BFA03F202FA03F3BD
:103500005B4565D00494FFF732BB2D4B9C453FF7DC
:103510000EAE049B029339E64FF48025012316E496
:1035200021A3D3E90023DDE9080100F023FC1EA359
:10353000D3E9002300F01EFCFFF737BBDDE90801EB
:1035400019A3D3E9002300F015FC17A3D3E9002346
:1035500000F010FCFFF729BB09A3D3E90023DDE944
:10356000080100F007FC06A3D3E9002300F002FCE9
:10357000FFF71BBBAFF300803E5555555555C53F72
:1035800059F3F8C21F6EA501000000604715F73F10
:1035900044DF5DF80BAE543E555555555555D53F56
:1035A000FE822B654715F73F9C7500883CE4377E0B
:1035B0000000F03FFFCB9040FEFFEF3F0000D03F08
:1035C0000000E03F049A00F093F902460B46C3E680
:1035D00002F00102C2F102020492FFF7C8BA00BF72
:1035E00021F0004C2DE9F8434FEA1C5CDFF86C81B8
:1035F0004FEA0C5CC44506460F460B46024600F0F7
:103600008F8000296FDD0F1578D0A7F2FF37C3F345
:103610001303F90743F4801360D4D10F4FF0000C6B
:1036200001EB43037F105200654616204FF4001152
:103630006C189C424FEAD2764FEA420202DC1B1B16
:1036400065188C44013806EB43034FEA5101EFD172
:10365000804620264FF0004109E023D0D40F013EE0
:103660004FEA510104EB43034FEA42021ED0AB4242
:1036700001EB0804F1DD04F00049B9F1004F04EB5F
:10368000010809D0A9465B1B944288BF03F1FF33B0
:10369000121B08444D46E1E7B8F1000FF2DB05F1DB
:1036A0000109F0E79442E6D91D46D7E71A4304D052
:1036B000431C41D000F00103184446084FEA6C0354
:1036C0001CF0010F03F17F5303F5001318BF46F000
:1036D000004603EB07513046BDE8F883D10F01EBFC
:1036E0004303520099E721F00043034322D051BB2A
:1036F0000F46D30A153F5205002BFAD013F4801160
:103700001DD15B00D80201F10101FAD5C1F1010020
:10371000C1F1200422FA04F407448A40234374E7E9
:1037200002460B4600F026FB32463B4600F070F99D
:10373000BDE8F883BDE8F8830CF1010CBEE7202456
:1037400001200021E6E702460B4600F05FF9024641
:103750000B4600F039FCBDE8F88300BF0000F07FA5
:1037600021F00041704700BF41F0004101F5801099
:10377000C00F704731F0004310B408D00F4AA3F5D2
:10378000801494420AD804205DF8044B7047002846
:103790000CBF022003205DF8044B7047B3F5801F77
:1037A00001D20320F7E7064A934201D00020F2E756
:1037B000D0F1010038BF0020EDE700BFFFFFDF7F41
:1037C0000000F07F0020704700200149704700BFD3
:1037D0000000F87F2DE9F043C1F30A5CACF2FF373B
:1037E000132F83B002460B460D46894680464FEAAA
:1037F000D17630DC002F4CDB3A49394101EA030035
:1038000010432DD0490801EA030858EA02080CD0F9
:103810004FF480233B41132F25EA010141EA0309BC
:1038200014BF4FF000084FF000482F494B4601EB02
:10383000C606D6E9004542462046294600F0E8F88B
:10384000CDE90001DDE9000122462B4600F0DEF85B
:1038500003B0BDE8F083332F07DDB7F5806F3ED0AE
:103860001046194603B0BDE8F083ACF2134C4FF09C
:10387000FF3121FA0CF10142F2D049080142D4D0C3
:103880004FF0804848FA0CFC20EA010141EA0C089C
:10389000CBE721F000410143E2D0C3F31301014320
:1038A0004C420C431048590C240B490404F40024E6
:1038B00044EA010300EBC601D1E900452046294650
:1038C00000F0A6F8CDE90001DDE900012B46224613
:1038D00000F09CF821F0004343EAC671C2E700F013
:1038E00097F8BFE7FFFF0F00104C08000000000032
:1038F000C1F30A532DE9F041904606460F460A46A9
:103900001BBB21F00043034334D0354B002200F0B1
:1039100031FA344B064698450F463BDBC1F30A5358
:10392000363B0A46434440F2FE718B4216DD28A125
:10393000D1E9000132463B4600F05AF824A3D3E90E
:10394000002300F017FABDE8F08140F2FF74A342B3
:1039500027D0434440F2FE718B42E8DC002B0BDDA4
:1039600022F0FF4222F4E00242EA03573046394691
:10397000BDE8F081BDE8F08113F1350F17DA4CF2A4
:1039800050339845D3DC14A1D1E9000132463B46BF
:1039900000F02EF810A3D3E9002300F0EBF9BDE806
:1039A000F08102460B4600F033F8BDE8F08122F0CA
:1039B000FF4222F4E002363342EA035730463946EA
:1039C0000022094B00F0D6F9BDE8F081AFF300808A
:1039D0009C7500883CE4377E59F3F8C21F6EA50140
:1039E00000005043B03CFFFF0000903CAFF300806C
:1039F00030B403F0004321F0004243EA020130BC3E
:103A0000704700BF81F0004102E000BF83F0004337
:103A100030B54FEA41044FEA430594EA050F08BF69
:103A200090EA020F1FBF54EA000C55EA020C7FEA2D
:103A3000645C7FEA655C00F0E2804FEA5454D4EBAA
:103A40005555B8BF6D420CDD2C4480EA020281EA74
:103A5000030382EA000083EA010180EA020281EAAC
:103A60000303362D88BF30BD11F0004F4FEA0131FE
:103A70004FF4801C4CEA113102D0404261EB41010D
:103A800013F0004F4FEA03334CEA133302D0524293
:103A900063EB430394EA050F00F0A780A4F101044F
:103AA000D5F1200E0DDB02FA0EFC22FA05F2801889
:103AB00041F1000103FA0EF2801843FA05F359416F
:103AC0000EE0A5F120050EF1200E012A03FA0EFCEE
:103AD00028BF4CF0020C43FA05F3C01851EBE37118
:103AE00001F0004507D54FF0000EDCF1000C7EEB35
:103AF00000006EEB0101B1F5801F1BD3B1F5001F73
:103B00000CD349085FEA30004FEA3C0C04F1010491
:103B10004FEA445212F5800F80F09A80BCF1004FBA
:103B200008BF5FEA500C50F1000041EB045141EA3C
:103B3000050130BD5FEA4C0C404141EB010111F43D
:103B4000801FA4F10104E9D191F0000F04BF0146E8
:103B50000020B1FA81F308BF2033A3F10B03B3F1C6
:103B600020020CDA0C3208DD02F1140CC2F10C0256
:103B700001FA0CF021FA02F10CE002F11402D8BFB4
:103B8000C2F1200C01FA02F120FA0CFCDCBF41EA80
:103B90000C019040E41AA2BF01EB0451294330BD4F
:103BA0006FEA04041F3C1CDA0C340EDC04F114042C
:103BB000C4F1200220FA04F001FA02F340EA030003
:103BC00021FA04F345EA030130BDC4F10C04C4F149
:103BD000200220FA02F001FA04F340EA0300294629
:103BE00030BD21FA04F0294630BD94F0000F83F473
:103BF000801306BF81F480110134013D4EE77FEA56
:103C0000645C18BF7FEA655C29D094EA050F08BFA1
:103C100090EA020F05D054EA000C04BF1946104682
:103C200030BD91EA030F1EBF0021002030BD5FEAC6
:103C3000545C05D14000494128BF41F0004130BDEE
:103C400014F580043CBF01F5801130BD01F0004542
:103C500045F0FE4141F470014FF0000030BD7FEAB5
:103C6000645C1ABF194610467FEA655C1CBF0B46B0
:103C7000024650EA013406BF52EA033591EA030FC7
:103C800041F4002130BD00BF90F0000F04BF0021BF
:103C9000704730B54FF4806404F132044FF00005F2
:103CA0004FF0000150E700BF90F0000F04BF00216B
:103CB000704730B54FF4806404F1320410F00045D1
:103CC00048BF40424FF000013EE700BF42004FEACC
:103CD000E2014FEA31014FEA02701FBF12F07F4349
:103CE00093F07F4F81F06051704792F0000F14BF46
:103CF00093F07F4F704730B54FF4607401F000458A
:103D000021F0004120E700BF50EA010208BF7047E0
:103D100030B54FF000050AE050EA010208BF7047D5
:103D200030B511F0004502D5404261EB41014FF43E
:103D3000806404F132045FEA915C3FF4DCAE4FF042
:103D400003025FEADC0C18BF03325FEADC0C18BF29
:103D5000033202EBDC02C2F1200300FA03FC20FA7A
:103D600002F001FA03FE40EA0E0021FA02F11444C7
:103D7000C1E600BF70B54FF0FF0C4CF4E06C1CEADC
:103D800011541DBF1CEA135594EA0C0F95EA0C0F51
:103D900000F0DEF82C4481EA030621EA4C5123EAC4
:103DA0004C5350EA013518BF52EA033541F48011F3
:103DB00043F4801338D0A0FB02CE4FF00005E1FBA6
:103DC00002E506F00042E0FB03E54FF00006E1FBF0
:103DD00003569CF0000F18BF4EF0010EA4F1FF0433
:103DE000B6F5007F64F5407404D25FEA4E0E6D4173
:103DF00046EB060642EAC62141EA55514FEAC52084
:103E000040EA5E504FEACE2EB4F1FD0C88BFBCF5FF
:103E1000E06F1ED8BEF1004F08BF5FEA500E50F1B0
:103E2000000041EB045170BD06F0004646EA010176
:103E300040EA020081EA0301B4EB5C04C2BFD4EBA8
:103E40000C0541EA045170BD41F480114FF0000EA1
:103E5000013C00F3AB8014F1360FDEBF002001F00F
:103E6000004170BDC4F10004203C35DA0C341BDC89
:103E700004F11404C4F1200500FA05F320FA04F05B
:103E800001FA05F240EA020001F0004221F000418F
:103E900010EBD37021FA04F642EB06015EEA430E02
:103EA00008BF20EAD37070BDC4F10C04C4F1200532
:103EB00000FA04F320FA05F001FA04F240EA0200E5
:103EC00001F0004110EBD37041F100015EEA430EB6
:103ED00008BF20EAD37070BDC4F1200500FA05F2D6
:103EE0004EEA020E20FA04F301FA05F243EA020355
:103EF00021FA04F001F0004121FA04F220EA020064
:103F000000EBD3705EEA430E08BF20EAD37070BDA9
:103F100094F0000F0FD101F00046400041EB010189
:103F200011F4801F08BF013CF7D041EA060195F06B
:103F3000000F18BF704703F00046520043EB030325
:103F400013F4801F08BF013DF7D043EA0603704712
:103F500094EA0C0F0CEA135518BF95EA0C0F0CD01D
:103F600050EA410618BF52EA4306D1D181EA030163
:103F700001F000414FF0000070BD50EA410606BF5D
:103F80001046194652EA430619D094EA0C0F02D1A2
:103F900050EA013613D195EA0C0F05D152EA0336E7
:103FA0001CBF104619460AD181EA030101F0004105
:103FB00041F0FE4141F470014FF0000070BD41F04E
:103FC000FE4141F4780170BD70B54FF0FF0C4CF428
:103FD000E06C1CEA11541DBF1CEA135594EA0C0F47
:103FE00095EA0C0F00F0A7F8A4EB050481EA030E94
:103FF00052EA03354FEA013100F088804FEA03337B
:104000004FF0805545EA131343EA12634FEA022248
:1040100045EA111545EA10654FEA00260EF0004109
:104020009D4208BF964244F1FD0404F5407402D25B
:104030005B084FEA3202B61A65EB03055B084FEAEC
:1040400032024FF480104FF4002CB6EB020E75EBE9
:10405000030E22BFB61A754640EA0C005B084FEA11
:104060003202B6EB020E75EB030E22BFB61A75468E
:1040700040EA5C005B084FEA3202B6EB020E75EBD9
:10408000030E22BFB61A754640EA9C005B084FEA51
:104090003202B6EB020E75EB030E22BFB61A75465E
:1040A00040EADC0055EA060E18D04FEA051545EA4D
:1040B00016754FEA06164FEAC30343EA52734FEAF6
:1040C000C2025FEA1C1CC0D111F4801F0BD141EA6F
:1040D00000014FF000004FF0004CB6E711F4801FD4
:1040E00004BF01430020B4F1FD0C88BFBCF5E06FB4
:1040F0003FF6AFAEB5EB030C04BFB6EB020C5FEAC4
:10410000500C50F1000041EB045170BD0EF0004E18
:104110004EEA113114EB5C04C2BFD4EB0C0541EA4A
:10412000045170BD41F480114FF0000E013C90E647
:1041300045EA060E8DE60CEA135594EA0C0F08BF0B
:1041400095EA0C0F3FF43BAF94EA0C0F0AD150EA0A
:1041500001347FF434AF95EA0C0F7FF425AF10469D
:1041600019462CE795EA0C0F06D152EA03353FF4C5
:10417000FDAE1046194622E750EA410618BF52EA42
:1041800043067FF4C5AE50EA41047FF40DAF52EA16
:1041900043057FF4EBAE12E74FF0FF3C06E000BFB3
:1041A0004FF0010C02E000BF4FF0010C4DF804CDC0
:1041B0004FEA410C7FEA6C5C4FEA430C18BF7FEA80
:1041C0006C5C1BD001B050EA410C0CBF52EA430CAE
:1041D00091EA030F02BF90EA020F0020704710F12E
:1041E000000F91EA030F58BF994208BF90422CBFBD
:1041F000D8176FEAE37040F0010070474FEA410CB6
:104200007FEA6C5C02D150EA013C07D14FEA430CD3
:104210007FEA6C5CD6D152EA033CD3D05DF8040B44
:10422000704700BF8446104662468C461946634676
:1042300000E000BF01B5FFF7B7FF002848BF10F14D
:10424000000F01BD4DF808EDFFF7F4FF0CBF012092
:1042500000205DF808FB00BF4DF808EDFFF7EAFF0E
:1042600034BF012000205DF808FB00BF4DF808EDC9
:10427000FFF7E0FF94BF012000205DF808FB00BFBE
:104280004DF808EDFFF7CEFF94BF012000205DF848
:1042900008FB00BF4DF808EDFFF7C4FF34BF012055
:1042A00000205DF808FB00BF4FEA4102B2F1E04395
:1042B00024BFB3F5001CDCF1FE5C0DD901F0004C0D
:1042C0004FEAC0024CEA5070B2F1004F40EB83005D
:1042D00008BF20F00100704711F0804F21D113F189
:1042E0003872BCBF01F00040704741F480114FEAC2
:1042F0005252C2F11802C2F1200C10FA0CF320FA4B
:1043000002F018BF40F001004FEAC1234FEAD32367
:1043100003FA0CFC40EA0C0023FA02F34FEA4303D1
:10432000CCE77FEA625307D150EA01331EBF4FF05A
:10433000FE4040F44000704701F0004040F0FE4075
:1043400040F40000704700BF80F0004002E000BF72
:1043500081F0004142001FBF5FEA410392EA030F70
:104360007FEA226C7FEA236C6AD04FEA1262D2EBBA
:104370001363C1BFD218414048404140B8BF5B42BF
:10438000192B88BF704710F0004F40F4000020F058
:104390007F4018BF404211F0004F41F4000121F06E
:1043A0007F4118BF494292EA030F3FD0A2F10102B8
:1043B00041FA03FC10EB0C00C3F1200301FA03F1F6
:1043C00000F0004302D5494260EB4000B0F5000F19
:1043D00013D3B0F1807F06D340084FEA310102F1D8
:1043E0000102FE2A51D2B1F1004F40EBC25008BF8A
:1043F00020F0010040EA03007047490040EB000054
:1044000010F4000FA2F10102EDD1B0FA80FCACF182
:10441000080CB2EB0C0200FA0CF0AABF00EBC25081
:1044200052421843BCBFD0401843704792F0000F6F
:1044300081F4000106BF80F400000132013BB5E7C2
:104440004FEA41037FEA226C18BF7FEA236C21D038
:1044500092EA030F04D092F0000F08BF084670479D
:1044600090EA010F1CBF0020704712F07F4F04D16B
:10447000400028BF40F00040704712F100723CBF7E
:1044800000F50000704700F0004343F0FE4040F4A8
:10449000000070477FEA226216BF08467FEA236366
:1044A0000146420206BF5FEA412390EA010F40F451
:1044B000800070474FF0000304E000BF10F000439D
:1044C00048BF40425FEA000C08BF704743F0964384
:1044D00001464FF000001CE050EA010208BF70479F
:1044E0004FF000030AE000BF50EA010208BF704726
:1044F00011F0004302D5404261EB41015FEA010C3B
:1045000002BF84460146002043F0B64308BFA3F132
:104510008053A3F50003BCFA8CF2083AA3EBC25314
:1045200010DB01FA02FC634400FA02FCC2F1200233
:10453000BCF1004F20FA02F243EB020008BF20F06A
:104540000100704702F1200201FA02FCC2F12002D0
:1045500050EA4C0021FA02F243EB020008BF20EAC5
:10456000DC7070474FF0FF0C1CEAD0521EBF1CEAF3
:10457000D15392EA0C0F93EA0C0F6FD01A4480EAE1
:10458000010C400218BF5FEA41211ED04FF00063CA
:1045900043EA501043EA5111A0FB01310CF00040F6
:1045A000B1F5000F3EBF490041EAD3715B0040EA1C
:1045B000010062F17F02FD2A1DD8B3F1004F40EBEC
:1045C000C25008BF20F00100704790F0000F0CF0BF
:1045D000004C08BF49024CEA502040EA51207F3A83
:1045E000C2BFD2F1FF0340EAC250704740F400005E
:1045F0004FF00003013A5DDC12F1190FDCBF00F04F
:1046000000407047C2F10002410021FA02F1C2F1FC
:10461000200200FA02FC5FEA310040F1000053EA98
:104620004C0308BF20EADC70704792F0000F00F0E6
:10463000004C02BF400010F4000F013AF9D040EAEC
:104640000C0093F0000F01F0004C02BF490011F480
:10465000000F013BF9D041EA0C018FE70CEAD1537E
:1046600092EA0C0F18BF93EA0C0F0AD030F0004CFE
:1046700018BF31F0004CD8D180EA010000F00040B2
:10468000704790F0000F17BF90F0004F084691F070
:10469000000F91F0004F14D092EA0C0F01D14202AA
:1046A0000FD193EA0C0F03D14B0218BF084608D173
:1046B00080EA010000F0004040F0FE4040F40000BD
:1046C000704740F0FE4040F4400070474FF0FF0C50
:1046D0001CEAD0521EBF1CEAD15392EA0C0F93EA97
:1046E0000C0F69D0A2EB030280EA010C49024FEAE9
:1046F000402037D04FF0805343EA111143EA1013A2
:104700000CF000408B4238BF5B0042F17D024FF459
:10471000000C8B4224BF5B1A40EA0C00B3EB510F34
:1047200024BFA3EB510340EA5C00B3EB910F24BF1D
:10473000A3EB910340EA9C00B3EBD10F24BFA3EBA2
:10474000D10340EADC001B0118BF5FEA1C1CE0D16A
:10475000FD2A3FF650AF8B4240EBC25008BF20F01D
:10476000010070470CF0004C4CEA50207F32C2BF71
:10477000D2F1FF0340EAC250704740F400004FF00E
:104780000003013A37E792F0000F00F0004C02BF3F
:10479000400010F4000F013AF9D040EA0C0093F009
:1047A000000F01F0004C02BF490011F4000F013B63
:1047B000F9D041EA0C0195E70CEAD15392EA0C0FCB
:1047C00008D142027FF47DAF93EA0C0F7FF470AF03
:1047D000084676E793EA0C0F04D14B023FF44CAF46
:1047E00008466EE730F0004C18BF31F0004CCAD1DB
:1047F00030F000427FF45CAF31F000437FF43CAF17
:104800005FE700BF42000ED2B2F1FE4F0BD34FF074
:104810009E03B3EB126209D44FEA002343F0004336
:1048200023FA02F070474FF00000704712F1610F59
:1048300001D1420202D14FF0FF3070474FF000002B
:10484000704700BF014B1868704700BF7005072014
:1048500070B50F4E0F4D761BB61007D0043D0024E7
:10486000013455F8043F9847A642F9D10A4E0B4D42
:1048700000F0DAF9761BB61008D0043D00240134AC
:1048800055F8043F9847A642F9D170BD70BD00BFEE
:10489000344C0800344C08003C4C0800344C0800F0
:1048A000844641EA000313F0030349D1403A23D37D
:1048B0000B6803604B6843608B688360CB68C360A0
:1048C0000B6903614B6943618B698361CB69C36188
:1048D0000B6A03624B6A43628B6A8362CB6AC36270
:1048E0000B6B03634B6B43638B6B8363CB6BC36358
:1048F00040304031403ADBD230320BD30B6803609A
:104900004B6843608B688360CB68C36010301031A4
:10491000103AF3D20C3205D351F8043B40F8043B73
:10492000043AF9D2043208D0D2071CBF11F8013B77
:1049300000F8013B01D30B8803806046704700BF3D
:10494000082A13D38B07B1D010F00303AED0C3F104
:104950000403D21ADB071CBF11F8013B00F8013B2E
:10496000A4D331F8023B20F8023B9FE7043AD9D3A5
:10497000013A11F8013B00F8013BF9D20B780370C2
:104980004B7843708B78837060467047F0B484072F
:1049900043D0541E002A3ED0CDB2034603E0621E2F
:1049A000002C38D0144603F8015B9A07F7D1032C8A
:1049B0002AD9CDB245EA05250F2C45EA054515D97A
:1049C000A4F110073F0903F1100606EB07161A467B
:1049D000156055609560D5601032B242F8D104F090
:1049E0000F040137032C03EB07130DD91E46224693
:1049F000043A032A46F8045BFAD8221F22F0030285
:104A00000432134404F003042CB1C9B21C4403F86B
:104A1000011BA342FBD1F0BC704714460346C6E716
:104A200040EA01039B0770B42AD1032A28D90C4617
:104A30000346214654F8045BA5F1013626EA050633
:104A400016F0803F05D1043A032A43F8045B21465F
:104A5000EFD89AB10C78013A1C7001333CB16AB1BD
:104A600011F8014F013A03F8014B002CF7D12AB19C
:104A70001A44002103F8011B9342FBD170BC70471C
:104A80000346E6E7024B13B1024800F005B8704751
:104A900000000000A54A0800014600200246034627
:104AA00000F018B838B5094D094C641BA41018BFA4
:104AB00005EB840505D0013C55F8043D9847002CD2
:104AC000F9D1BDE8384000F0B9B800BF484C080043
:104AD0004C4C0800F0B5274C85B026680746D6F840
:104AE0004841002C40D065681F2D1EDD224818B9B2
:104AF0004FF0FF3005B0F0BD4FF4C8700391029243
:104B00000193AFF3008003990446029A019B0028A9
:104B1000EED0D6F848510020256060600546C6F802
:104B20004841C4F88801C4F88C013FB96B1C0020CF
:104B30000235636044F8251005B0F0BD0126AE4093
:104B400004EB8500C0F88820D4F88821022F42EABF
:104B50000602C4F88821C0F80831E7D1D4F88C31B6
:104B60001E43C4F88C61E1E706F5A674C6F8484117
:104B7000B9E700BF244C08000000000025730909B4
:104B800025630925750925750925750D0A0000009D
:104B900049444C45000000000D0A0000546D72208D
:104BA00053766300010000000200000004000000D2
:104BB000080000001000000020000000400000007D
:104BC000800000000001000000020000000400005E
:104BD000556172740000000050494400706F770006
:104BE00000000000000000000000004003B8E23FA9
:104BF000000000000000000006D0CF43EBFD4C3E5B
:104C0000000000000000F03F000000000000F83F3E
:104C1000000000000000304300000000000030C32E
:104C20004300000048010720F8B500BFF8BC08BCED
:104C30009E467047854A080019010800F8B500BF74
:0C4C4000F8BC08BC9E467047F500080058
:104C4C004FF48063204A136002F5007213601F4B0F
:104C5C001B6A13F0807F07D11D4A1C4B1A621A463F
:104C6C00936E13F0010FFBD01A4A184B1A621A46B6
:104C7C00936E13F4803FFBD0144B1A6B22F003029B
:104C8C0042F001021A631A46936E13F0080FFBD020
:104C9C00114A0E4B9A621A46936E13F0020FFBD018
:104CAC0011220A4B1A631A46936E13F0080FFBD0AD
:104CBC001222064B1A631A46936E13F0080FFBD0A0
:104CCC00064A074B1A607047000A0E4000060E4059
:104CDC000908370009083701013F0D2000BD010507
:104CEC00380107201B4B984206D800231A4A136040
:104CFC0002F5007213607047184B984207D84FF4B6
:104D0C008073154A136002F5007213607047144BE0
:104D1C00984207D84FF400730F4A136002F50072E3
:104D2C00136070470F4B984207D84FF440730A4AF0
:104D3C00136002F50072136070470B4B984294BFDE
:104D4C004FF480634FF4A063034A136002F50072C2
:104D5C0013607047BFEA2101000A0E407FF0FA028F
:104D6C00FF8FD003FFB3C4047F4A5D05AAAAAAAA89
:104D7C0000800000FFFF000000093D000100000062
:104D8C0001000000000000000000000034040720B7
:104D9C009C04072004050720000000000000000010
:104DAC0000000000000000000000000000000000F7
:104DBC00000000000000000000000000204C080073
:104DCC0000000000000000000000000000000000D7
:104DDC0000000000000000000000000000000000C7
:104DEC0000000000000000000000000000000000B7
:104DFC0000000000000000000000000000000000A7
:104E0C000000000000000000000000000000000096
:104E1C000000000000000000000000000000000086
:104E2C000000000000000000000000000000000076
:104E3C0001000000000000000E33CDAB34126DE613
:104E4C00ECDE05000B00000000000000000000007C
:104E5C000000000000000000000000000000000046
:104E6C000000000000000000000000000000000036
:104E7C000000000000000000000000000000000026
:104E8C000000000000000000000000000000000016
:0451BC00480107207F
:0400000380002571E3
:00000001FF
